:02000002B0004C
:1040000000400B00CA520B00000006000C00050225
:084010000401B41400000000DB
:04401800F04F0B005A
:10401C00034613F8012B002AFBD1181A01387047FC
:10402C0009480A49884208B505D0094A824202D09B
:10403C00121A00F02DFF0748074A0021121A00F04F
:10404C0035FF014808BD00BF38E6032030520B0095
:10405C00A4E60320A4E60320F0E7032070B5074E86
:10406C00074C00F0E1FDA41BA4080025AC4200D1D4
:10407C0070BD56F8043B98470135F7E7E8510B0043
:10408C000C520B0000F014B808B500F025F8BDE890
:10409C00084000F081BD00F0F5B900F0FBB90078E4
:1040AC00B0FA80F04009704701230370704700009C
:1040BC0008B50021064B0846598000F025FE054B3B
:1040CC0004205880BDE80840012100F01DBE00BF4F
:1040DC00B0E60320B4E6032010B5104C0021608834
:1040EC0000F012FE608800F039FE012806D123781A
:1040FC0023B96378207083F001036370608800F04B
:10410C002DFE00B92070064B61785888197001B1EA
:10411C000121BDE8104000F008BE00BFB0E603204E
:10412C00B4E60320094B0A4A10B50024C3E9004445
:10413C009A60032000F01AF92146012000F01EF9C4
:10414C00044B1C80044B1C7010BD00BFA4E6032064
:10415C000000FFFFB0E60320B4E6032008B5024BD5
:10416C001B685B6C019308BD4802030008B5024B49
:10417C001B685B68019308BD1802030008B5024B6D
:10418C001B685B69019308BD1802030008B5024B5C
:10419C001B689B68019308BD2C02030008B5024BF9
:1041AC001B68DB68019308BD2C02030008B5024BA9
:1041BC001B681B69019308BD2C02030008B5024B58
:1041CC001B685B69019308BD2C02030008B5024B08
:1041DC001B681B6A019308BD2802030008B5024B3B
:1041EC001B685B6A019308BD2802030008B5024BEB
:1041FC001B689B6A019308BD2802030008B5024B9B
:10420C001B68DB6A019308BD2802030008B5024B4A
:10421C001B681B6B019308BD2802030008B5024BF9
:10422C001B685B6B019308BD2802030008B5024BA9
:10423C001B681B6C019308BD2802030008B5024BD8
:10424C001B685B69019308BD6402030008B5024B4F
:10425C001B689B68019308BD6802030008B5024BFC
:10426C001B68DB68019308BD6802030008B5024BAC
:10427C001B68DB69019308BD3002030008B5024BD3
:10428C001B681B6A019308BD3002030008B5024B82
:10429C001B68DB68019308BD3C02030008B5024BA8
:1042AC001B681B69019308BD3C02030008B5024B57
:1042BC001B685B69019308BD3C02030008B5024B07
:1042CC001B689B69019308BD3C02030008B5024BB7
:1042DC001B68DB69019308BD3C02030008B5024B67
:1042EC001B681B6A019308BD3C02030008B5024B16
:1042FC001B689B6A019308BD3C02030008B5024B86
:10430C001B681B6C019308BD3C02030008B5024BF3
:10431C001B681B68019308BD4C02030008B5024BD7
:10432C001B681B69019308BD4C02030008B5024BC6
:10433C001B685B69019308BD4C02030008B5024B76
:10434C001B689B69019308BD4C02030008B5024B26
:10435C001B68DB69019308BD4C02030008B5024BD6
:10436C001B681B6A019308BD4C02030008B5024B85
:10437C001B685B68019308BD2002030008B5024B63
:10438C001B68DB6A019308BD2002030008B5034BD0
:10439C001B68D3F88830019308BD0000200203008D
:1043AC0008B5034B1B68D3F89430019308BD00008B
:1043BC002002030008B5024B1B68DB6B019308BDA0
:1043CC004402030008B5024B1B685B68019308BDEF
:1043DC004002030008B5024B1B689B68019308BDA3
:1043EC004002030008B5024B1B68DB68019308BD53
:1043FC004002030008B5024B1B681B69019308BD02
:10440C004002030008B5024B1B685B69019308BDB1
:10441C004002030008B5024B1B689B69019308BD61
:10442C004002030008B5024B1B68DB69019308BD11
:10443C004002030008B5024B1B681B6A019308BDC0
:10444C004002030008B5024B1B681B6B019308BDAF
:10445C004002030008B5024B1B685B6B019308BD5F
:10446C004002030008B5024B1B681B6C019308BD8E
:10447C004002030008B5024B1B685B6C019308BD3E
:10448C004002030008B5024B1B681B68019308BD72
:10449C001C02030008B5024B1B685B68019308BD46
:1044AC001C02030008B5024B1B681B6C019308BD72
:1044BC001C02030008B5024B1B685B6C019308BD22
:1044CC001C020300024800230360FFF747BE00BF35
:1044DC00B8E60320002240681146FFF7ABBF00226C
:1044EC0040681146FFF7B6BF40680022FFF7AABF2D
:1044FC004068002281F00101FFF794BF002340685F
:10450C001A461946FFF786BF002340681A4619461B
:10451C00FFF778BF002240681146FFF76BBF0022FF
:10452C0040681146FFF756BF406800220221FFF792
:10453C0059BF002340681A46FFF744BF024B0322C1
:10454C005A60024A1A607047BCE603200C500B00FC
:10455C007047F8B5064615460C468F18BC4206D077
:10456C00336814F8011B9B6830469847F6E72846D9
:10457C00F8BD007C0022FFF729BE007C0021FFF76C
:10458C002DBE007C0021FFF731BE007C0021FFF71F
:10459C0035BE007C0021FFF739BE10B5142104464E
:1045AC00FFF77BFD204610BD38B5044615464FF489
:1045BC007A730022C4E90123094B21740846236055
:1045CC002946FFF733FEBF3008D16B69DB0705D5F1
:1045DC006868FFF75FFFE868FFF75CFF204638BDAF
:1045EC0048500B00704710B518210446FFF755FDD5
:1045FC00204610BDF0B5037D062B8DB00E4600F1A4
:10460C0004074FF0000412D000F1080515F8011D45
:10461C000A22304600F043F9AF42044419D0002C72
:10462C00F4D02E21304600F037F90444EEE72F2366
:10463C006A4639460A208DF80040FFF7FFFD6846B0
:10464C00FFF7E6FC33680246DB686946304698475C
:10465C00044620460DB0F0BD10B5054B04461122A2
:10466C0040F8043B002100F021FC204610BD00BFA7
:10467C0070500B000346074A10B543F8042B01F1A8
:10468C00100251F8044B43F8044B9142F9D10A78CB
:10469C001A7010BD70500B0010B59DF8084044EA1C
:1046AC00032343EA024242EA016104234160037599
:1046BC0010BD000007B5064B0360CB7800938B78D8
:1046CC004A780978FFF7E8FF03B05DF804FB00BFF8
:1046DC0070500B00014B024A1A607047C4E603206D
:1046EC007C500B00002340681A46FFF76BBE4068F5
:1046FC0000220221FFF776BE002240681146FFF728
:10470C0069BE002240681146FFF774BE0023406862
:10471C001A461946FFF776BE002340681A4619461A
:10472C00FFF778BE40680021FFF79CBE406800216F
:10473C00FFF7A0BE4068002281F00101FFF772BEB6
:10474C0040680022FFF77EBE002240681146FFF74A
:10475C0081BE002240681146FFF76CBE2DE9F04384
:10476C0095B014460D460746FFF776FF00211C2234
:10477C000DA8009100F09AFB40230C9320466B4649
:10478C000CAA0021FFF76AFD044600284BD1024613
:10479C0001216868FFF72EFE0221804622466868D8
:1047AC00FFF728FE009E81462146002E3BD00029B3
:1047BC0039D17368022B03D00A2B11D0F669F4E7B8
:1047CC00B8F1000FFAD0716906A8043107ADFFF7F4
:1047DC0071FF0FCD3C1D0FC42B6823704146EDE7D4
:1047EC00B9F1000FEAD07469102201A800F05EFB49
:1047FC0006238DF8143001AD04F108031834186841
:10480C0059682A4603C20833A3421546F7D101A9B9
:10481C0006A807ADFFF72EFF0FCD3C1D0FC42B686C
:10482C0023704946CAE70098FFF710FD384615B0CB
:10483C00BDE8F083024B034A1A6000225A607047AD
:10484C00C8E6032088500B00F8B506460D468F18B5
:10485C000024BD420CD0336815F8011B9B68304610
:10486C009847031E01DB1C44F3E7002C08BF1C46D1
:10487C002046F8BD13B50446084659B10191FFF71F
:10488C00C7FB23680199DB680246204602B0BDE8ED
:10489C001040184702B010BD03689B68184730B52C
:1048AC008BB00023012A8DF8243098BF0A2209AC62
:1048BC000D46B1FBF2F101FB125303F0FF03092B80
:1048CC0094BF30333733DBB2AA4204F8013DEFD941
:1048DC002146FFF7CFFF0BB030BD0000014B00228B
:1048EC009A607047D0E6032010B504460846217044
:1048FC00FFF7BCFC00236360204610BD054B022271
:10490C001A60054B054A9A600020C3E90000FFF7C6
:10491C002DBD00BFECE60320E0E603200000FFFF06
:10492C00024B1A68024B1A60704700BF38E603202E
:10493C00F0E6032070474174704708B5007CFFF720
:10494C00D5FC20EAE07008BD08B5007CFFF7A6FC9A
:10495C0020EAE07008BD08B5007CFFF7AFFC40EA28
:10496C00E07008BD08B5007CFFF7A0FC40EAE070E1
:10497C0008BD007CFFF7AABC37B5457C04462DB1B9
:10498C00207C03B0BDE83040FFF780BC007C019177
:10499C00FFF7ACFC00280199F2DC284603B030BDCF
:1049AC0010B514210446FFF778FB204610BD00001B
:1049BC0010B54FF47A730446084611460022C4E938
:1049CC000123044B2360012320746374FFF796FCCE
:1049DC00204610BDE0500B00417470477047704783
:1049EC0008B50021007CFFF7A9FC40EAE07008BD87
:1049FC0008B50121007CFFF7A1FC40EAE07008BD7E
:104A0C0008B5007CFFF792FC20EAE07008BD08B501
:104A1C00007CFFF783FC20EAE07008BD13B5044668
:104A2C00007C0191FFF782FC0028019901DC607C7D
:104A3C0020B1207CFFF78AFC20EAE07002B010BDA8
:104A4C00007CFFF78BBC10B514210446FFF725FB47
:104A5C00204610BD10B54FF47A7304460846002169
:104A6C00C4E90113044B23600123207463741146C1
:104A7C00FFF74CFC204610BD10510B0010B5142252
:104A8C000446002100F012FA204610BD10B50F4C60
:104A9C0088B003A8FFF7F2FF2178BFF35B8F11F00A
:104AAC0001010FD120460191FFF7F9FA019948B1A4
:104ABC0003AA0748FFF7CEFF2046FFF7F5FA054893
:104ACC0000F0E0F9024808B010BD00BFF4E6032086
:104ADC00F8E60320E9490B00002240681146FFF775
:104AEC0089BC002240681146FFF7A4BC0022406834
:104AFC001146FFF7AFBC40680022FFF7A3BC40682B
:104B0C00002281F00101FFF78DBC002340681A469A
:104B1C001946FFF77FBC002340681A461946FFF779
:104B2C0071BC002240681146FFF754BC406800225B
:104B3C000221FFF757BC002340681A46FFF742BC1E
:104B4C00024B04225A60024A1A6070470CE7032099
:104B5C0040510B00014B1860704700BF3CE603202E
:104B6C0008B50B4B43B1FFF791FF03681B699847DE
:104B7C00002801DDAFF30080064B43B100F05CF977
:104B8C0003681B699847002801DDAFF3008008BD5E
:104B9C00000000000000000008B5FFF7E1FFFFF780
:104BAC00EDFA014B186008BD28E703200548064ABA
:104BBC00064908B5121A00F06BF9054B054A1A6044
:104BCC0008BD00BF00F4032004F403209C520B002A
:104BDC0000F403201E1C279A07B5002300931A46E5
:104BEC006FF07701FFF7DCFB03B05DF804FB00000E
:104BFC0007B543880A2B08D0502B0BD1094B1B68E7
:104C0C004BB103B05DF804EB1847FFF7E5FF03B0B9
:104C1C005DF804FB002300931A466FF07701FFF751
:104C2C00BFFBF4E718E7032010B512480021FFF78B
:104C3C0041FC114B1A68114B9A42114B0CBF0122CB
:104C4C0000221A7001D0FFF7B1FFFFF78FFA04466C
:104C5C0000F034F90B4B13B12046AFF30080002168
:104C6C000848FFF7A7FBBDE8104007480021FFF7F5
:104C7C008DBB00BF614B0B0000F403201E1C279A58
:104C8C0014E7032000000000FD4B0B00232813B594
:104C9C0002D9002002B010BDA0F10B03022B1AD8D0
:104CAC00174C2178BFF35B8F11F001010BD120461B
:104CBC000191FFF7F4F9019928B11248FFF714FE9E
:104CCC002046FFF7F1F90F4B1878FFF7D7FA0028B9
:104CDC00DFD10120DEE7012809D800F06DF80021B2
:104CEC00007CFFF79BFA80F00100C0B2D2E70938D4
:104CFC000128EED800F0A0F8007CFFF7EFFAF2E7FD
:104D0C001CE7032020E70320232838B504460D4672
:104D1C000AD8FF2908D0FFF7B9FF28B12946204649
:104D2C00BDE83840FFF732BA38BD38B504460D46F9
:104D3C00FFF734FAFF2810D0062804D84D2323FAA5
:104D4C0000F0C30709D42046FFF7A0FF28B129467D
:104D5C002046BDE83840FFF729BA38BD10B50446E7
:104D6C00FFF71CFA031FDBB2012B08D92046FFF713
:104D7C008DFF20B12046BDE81040FFF71FBA002080
:104D8C0010BD704738B50A4B0360012304464361DC
:104D9C000849202000F074F8202560600549A560C2
:104DAC00284600F06DF8C4E90305204638BD00BF65
:104DBC001800010074510B0030B50E4D2978BFF36B
:104DCC005B8F11F0010487B011D12846FFF767F90A
:104DDC0068B16846FFF7D6FF6A4621460648FFF7DA
:104DEC00E3FB2846FFF760F9044800F04BF8024853
:104DFC0007B030BD2CE7032030E703208F4D0B00AC
:104E0C007047000038B5044614252A46002100F0EE
:104E1C004DF825804025074925812846258200F03C
:104E2C002FF804496060284600F02AF8E06020461C
:104E3C0038BD00BF74510B0030B50E4D2978BFF34F
:104E4C005B8F11F0010487B011D12846FFF727F9C9
:104E5C0068B101A8FFF7D6FF01AA21460648FFF763
:104E6C00A7FD2846FFF720F9044800F00BF802488C
:104E7C0007B030BD44E7032048E703200D4E0B007C
:104E8C00FFF709B9002301461A46184600F044B84A
:104E9C000A44914200F1FF3300D1704710B511F86C
:104EAC00014B03F8014F9142F9D110BD0244034666
:104EBC00934200D1704703F8011BF9E738B5104B4A
:104ECC001D68AB6B0446B3B91820FFF7DBFA02463A
:104EDC00A86320B90B4B0C484221FFF7E3FA0B49AE
:104EEC000B4BC0E900130B4B83600B238381002118
:104EFC000120C2E90401AB6B00221C615A6138BD70
:104F0C003CE6032075510B008C510B000E33CDABDE
:104F1C0034126DE6ECDE05002DE9F843DFF8B880BD
:104F2C000646D8F800001F460D46914600F056F88C
:104F3C00254B1C6834B9254C1C60254B13B11B68E0
:104F4C00C4F8883063681F2B07DDD8F8000000F028
:104F5C0047F84FF0FF30BDE8F8834EB3D4F8880023
:104F6C0088B91C4B23B9D8F8000000F038F8F0E7EA
:104F7C004FF48470FFF786FA0028F4D00023C0E9C0
:104F8C004033C4F88800636840F8239001229A40AB
:104F9C0000EB8301D0F800311343C0F80031022E2E
:104FAC00C1F8807002BFD0F804311343C0F804314B
:104FBC006368D8F800005A1C0233626044F823502E
:104FCC0000F00EF80020C6E7E8E703205CE70320BA
:104FDC000000000091440B00A0E6032070477047CE
:104FEC00704700002D400B0069400B0091400B00F6
:104FFC0095400B00000000000000000000000000C5
:10500C003F450B0035450B002B450B0021450B0094
:10501C0015450B0009450B0031470B0039470B00B8
:10502C00FD440B00F5440B00EB440B00E1440B007A
:10503C0069470B0000000000000000005D450B00FC
:10504C00A7450B007F450B005F450B0087450B0008
:10505C008F450B0097450B009F450B00000000008F
:10506C000000000001460B00F1450B00F3450B005E
:10507C00617070000000000000000000F1460B00A1
:10508C00FB460B0005470B000F470B0019470B00A5
:10509C0025470B0031470B0039470B0041470B00EC
:1050AC004D470B0055470B005F470B0069470B0042
:1050BC0025592D256D2D25645425483A254D3A2525
:1050CC0053257A0061736374696D650000000000FC
:1050DC000000000041490B00AD490B0085490B0055
:1050EC0055480B0055490B0071490B0063490B00E7
:1050FC007F490B0043490B0047490B00000000009F
:10510C0000000000EB490B00534A0B00294A0B002E
:10511C0055480B001B4A0B00ED490B00FD490B00D9
:10512C004D4A0B000D4A0B00E5490B000000000036
:10513C0000000000434B0B00394B0B002F4B0B00B6
:10514C00E54A0B00234B0B00174B0B0031470B00B0
:10515C0039470B000B4B0B00034B0B00F94A0B00B0
:10516C00EF4A0B0069470B00005245454E54206D29
:10517C00616C6C6F63207375636365656465640053
:10518C002F746D702F6A656E6B696E732D47434378
:10519C002D31302D706970656C696E652D34385FFA
:1051AC0032303230313132345F31363036313830A2
:1051BC003633392F7372632F6E65776C69622F6E7D
:1051CC0065776C69622F6C6962632F7374646C69A8
:1051DC00622F72616E642E630000000031410B007F
:1051EC00D1440B0049450B00E1460B0041480B0034
:1051FC00E9480B0009490B002D490B004D4B0B00E6
:10520C00040000001400000003000000474E55008D
:10521C00C0E4EBBEF3ADEECE0FAA1C801191D4EF1F
:04522C00A5698A7F67
:10523000D0500B0040E603200000000000000000FA
:10524000000000000000000000000000000000005E
:10525000000000000000000000000000000000004E
:10526000000000000000000000000000000000003E
:10527000000000000000000000000000000000002E
:10528000000000000000000000000000000000001E
:0C5290000000000000000000ECE703201C
:04529C00000000000E
:1052A60000000102030405060708090A0B0C0D0E8F
:1052B6000F101112131415161718191A1B1C1D1E80
:0452C6001F2028007D
:0452CA0078563412CC
:04000003B000401CED
:00000001FF
