:02000002B0004C
:1040000000400B00DE550B00000006000C0005020E
:084010000401B41400000000DB
:0440180004530B0042
:10401C00034613F8012B002AFBD1181A01387047FC
:10402C0009480A49884208B505D0094A824202D09B
:10403C00121A01F0B7F80748074A0021121A01F0CA
:10404C00BFF8014808BD00BFE0E5032044550B0054
:10405C004CE603204CE60320F0E7032070B5074E36
:10406C00074C00F06BFFA41BA4080025AC4200D148
:10407C0070BD56F8043B98470135F7E7FC540B002C
:10408C0020550B0000F058B808B500F0AFF8BDE8AB
:10409C00084000F00BBF00F077BB00F07DBB007850
:1040AC00B0FA80F04009704701230370704701702B
:1040BC00408801B1012100F0C2BF10B500210446B7
:1040CC008170808800F0AAFFA08800F0D1FF012841
:1040DC000AD1237843B9A27920700AB1A070A371D8
:1040EC00637883F001036370A08800F0C1FF10B9FE
:1040FC0001232070A37110BD08B50A480021FFF7F9
:10410C00D6FF09480021FFF7D2FF08480021FFF72E
:10411C00CEFF07480021FFF7CAFF06480021FFF732
:10412C00C6FF08BD80E6032084E6032088E6032052
:10413C008CE6032090E603200021224B10B50846A4
:10414C000124998000F06AFF1F4B204600219C80BF
:10415C0000F064FF1D4B02200021988000F05EFFF0
:10416C001B4B03200021988000F058FF194B0420B2
:10417C002146588000F052FF174B052021465880ED
:10418C0000F04CFF154B06202146588000F046FFEE
:10419C00134B07202146588000F040FF114B08209C
:1041AC002146588000F03AFF0F4B214609205880D9
:1041BC0000F034FF00F0F4FDBDE810404FF4165150
:1041CC0000F0E2BD60E6032068E6032070E6032001
:1041DC0078E6032080E6032084E6032088E60320AB
:1041EC008CE6032090E6032094E60320F8B564489F
:1041FC00644C654DFFF761FF6448FFF75EFF644850
:10420C00FFF75BFF6348FFF758FF002622682B6817
:10421C00B2422DDD46B9604A604803EB8303D15CA2
:10422C00FFF745FF0136F1E7012E06D15A4A5C48EB
:10423C0003EB830313445978F2E7022E06D1564A56
:10424C00584803EB830313449978E9E7032E06D10E
:10425C00514A554803EB83031344D978E0E7042E05
:10426C00E0D14D4A514803EB830313441979D7E746
:10427C00042B38DC454EB17839B94549897821B9D8
:10428C003F49897800296FD1F8BD052A0BD000274A
:10429C002368474A052B13D101211170BDE8F84062
:1042AC00508800F0CCBE364A9278002A5ED1384B4A
:1042BC009F78002FEBD000232360FFF71DFFE7E76B
:1042CC002F49897869B967B92968334801EB8101AD
:1042DC000144B07880F00100C8540133052B2360F1
:1042EC00DAD00021D9E7324B01215888197000F03F
:1042FC00A6FE284B9B78002BC6D0274D2D4C274E65
:10430C00236803EB83033046E95CFFF7D0FE236898
:10431C00234803EB83032B445978FFF7C8FE23682B
:10432C00204803EB83032B449978FFF7C0FE2368E6
:10433C001D4803EB83032B44D978FFF7B8FE2368A1
:10434C001A4803EB83032B441979FFF7B0FE23685B
:10435C00042B03F101024FF0C8000ABF00232260B6
:10436C00236000F031FACBE7052A90D1013300220B
:10437C002B602260FFF7C0FE2368052B97D086E7E1
:10438C0060E6032098E603205CE6032068E6032041
:10439C0070E6032078E603209CE6032080E60320E9
:1043AC0084E6032088E603208CE6032090E60320B5
:1043BC0094E6032058E60320154B164A10B500244A
:1043CC009A60C3E90044032000F04AF92146012019
:1043DC0000F056F9104A01239371148094700F4A1F
:1043EC009371148094700E4A9371148094700D4ADA
:1043FC0093710D4B14801C700C4B94701C700C4BF7
:10440C001C700C4B1C700C4B1C700C4B1C7010BD9E
:10441C004CE603200000FFFF60E6032068E6032063
:10442C0070E6032078E6032080E6032084E6032070
:10443C0088E603208CE6032090E6032094E6032014
:10444C0008B5024B1B685B6C019308BD4802030066
:10445C0008B5024B1B685B68019308BD180203008A
:10446C0008B5024B1B685B69019308BD1802030079
:10447C0008B5024B1B689B68019308BD2C02030016
:10448C0008B5024B1B68DB68019308BD2C020300C6
:10449C0008B5024B1B681B69019308BD2C02030075
:1044AC0008B5024B1B685B69019308BD2C02030025
:1044BC0008B5024B1B681B6A019308BD2802030058
:1044CC0008B5024B1B685B6A019308BD2802030008
:1044DC0008B5024B1B689B6A019308BD28020300B8
:1044EC0008B5024B1B68DB6A019308BD2802030068
:1044FC0008B5024B1B681B6B019308BD2802030017
:10450C0008B5024B1B685B6B019308BD28020300C6
:10451C0008B5024B1B681B6C019308BD28020300F5
:10452C0008B5024B1B685B69019308BD640203006C
:10453C0008B5024B1B689B68019308BD6802030019
:10454C0008B5024B1B68DB68019308BD68020300C9
:10455C0008B5024B1B68DB69019308BD30020300F0
:10456C0008B5024B1B681B6A019308BD300203009F
:10457C0008B5024B1B68DB68019308BD3C020300C5
:10458C0008B5024B1B681B69019308BD3C02030074
:10459C0008B5024B1B685B69019308BD3C02030024
:1045AC0008B5024B1B689B69019308BD3C020300D4
:1045BC0008B5024B1B68DB69019308BD3C02030084
:1045CC0008B5024B1B681B6A019308BD3C02030033
:1045DC0008B5024B1B689B6A019308BD3C020300A3
:1045EC0008B5024B1B681B6C019308BD3C02030011
:1045FC0008B5024B1B681B68019308BD4C020300F5
:10460C0008B5024B1B685B68019308BD4C020300A4
:10461C0008B5024B1B681B69019308BD4C020300D3
:10462C0008B5024B1B685B69019308BD4C02030083
:10463C0008B5024B1B689B69019308BD4C02030033
:10464C0008B5024B1B68DB69019308BD4C020300E3
:10465C0008B5024B1B681B6A019308BD4C02030092
:10466C0008B5024B1B685B68019308BD2002030070
:10467C0008B5024B1B685B69019308BD200203005F
:10468C0008B5024B1B68DB6A019308BD20020300CE
:10469C0008B5034B1B68D3F88830019308BD0000A4
:1046AC002002030008B5034B1B68D3F89430019328
:1046BC0008BD00002002030008B5024B1B68DB6B31
:1046CC00019308BD4402030008B5024B1B685B68EC
:1046DC00019308BD4002030008B5024B1B689B68A0
:1046EC00019308BD4002030008B5024B1B68DB6850
:1046FC00019308BD4002030008B5024B1B681B69FF
:10470C00019308BD4002030008B5024B1B685B69AE
:10471C00019308BD4002030008B5024B1B689B695E
:10472C00019308BD4002030008B5024B1B68DB690E
:10473C00019308BD4002030008B5024B1B681B6ABD
:10474C00019308BD4002030008B5024B1B681B6BAC
:10475C00019308BD4002030008B5024B1B685B6B5C
:10476C00019308BD4002030008B5024B1B681B6C8B
:10477C00019308BD4002030008B5024B1B685B6C3B
:10478C00019308BD4002030008B5024B1B681B686F
:10479C00019308BD1C02030008B5024B1B685B6843
:1047AC00019308BD1C02030008B5024B1B681B6C6F
:1047BC00019308BD1C02030008B5024B1B685B6C1F
:1047CC00019308BD1C0203000021FFF751BF00003C
:1047DC00024800230360FFF733BE00BFB8E6032096
:1047EC00002240681146FFF7A7BF0022406811461F
:1047FC00FFF7B2BF40680022FFF7A6BF4068002257
:10480C0081F00101FFF790BF002340681A4619465A
:10481C00FFF782BF002340681A461946FFF774BFA2
:10482C00002240681146FFF767BF0022406811461E
:10483C00FFF752BF406800220221FFF755BF00234B
:10484C0040681A46FFF740BF024B03225A60024AE7
:10485C001A607047BCE6032020530B007047F8B574
:10486C00064615460C468F18BC4206D0336814F821
:10487C00011B9B6830469847F6E72846F8BD007C3C
:10488C000022FFF715BE007C0021FFF719BE007C4B
:10489C000021FFF71DBE007C0021FFF721BE007C2C
:1048AC000021FFF725BE10B514210446FFF7F5FBD8
:1048BC00204610BD38B5044615464FF47A730022D5
:1048CC00C4E90123094B2174084623602946FFF7EC
:1048DC001FFEBF3008D16B69DB0705D56868FFF791
:1048EC005BFFE868FFF758FF204638BD5C530B00B0
:1048FC00704710B518210446FFF7CFFB204610BDBA
:10490C00F0B5037D062B8DB00E4600F104074FF079
:10491C00000412D000F1080515F8011D0A223046DA
:10492C0000F043F9AF42044419D0002CF4D02E21EE
:10493C00304600F037F90444EEE72F236A46394637
:10494C000A208DF80040FFF7EBFD6846FFF760FB8F
:10495C0033680246DB686946304698470446204671
:10496C000DB0F0BD10B5054B0446112240F8043BC8
:10497C00002100F025FC204610BD00BF84530B0025
:10498C000346074A10B543F8042B01F1100251F805
:10499C00044B43F8044B9142F9D10A781A7010BDBC
:1049AC0084530B0010B59DF8084044EA032343EAF6
:1049BC00024242EA016104234160037510BD00000C
:1049CC0007B5064B0360CB7800938B784A7809784F
:1049DC00FFF7E8FF03B05DF804FB00BF84530B0046
:1049EC00014B024A1A607047C4E6032090530B0037
:1049FC00002340681A46FFF767BE40680022022178
:104A0C00FFF772BE002240681146FFF765BE002218
:104A1C0040681146FFF770BE002340681A461946DD
:104A2C00FFF772BE002340681A461946FFF774BEA2
:104A3C0040680021FFF798BE40680021FFF79CBE3C
:104A4C004068002281F00101FFF76EBE4068002231
:104A5C00FFF77ABE002240681146FFF77DBE0022A8
:104A6C0040681146FFF768BE2DE9F04395B0144637
:104A7C000D460746FFF776FF00211C220DA800917A
:104A8C0000F09EFB40230C9320466B460CAA0021A1
:104A9C00FFF756FD044600284BD1024601216868F9
:104AAC00FFF72AFE0221804622466868FFF724FEA3
:104ABC00009E81462146002E3BD0002939D17368D7
:104ACC00022B03D00A2B11D0F669F4E7B8F1000FD2
:104ADC00FAD0716906A8043107ADFFF771FF0FCD4D
:104AEC003C1D0FC42B6823704146EDE7B9F1000F54
:104AFC00EAD07469102201A800F062FB06238DF83D
:104B0C00143001AD04F108031834186859682A46AA
:104B1C0003C20833A3421546F7D101A906A807AD75
:104B2C00FFF72EFF0FCD3C1D0FC42B682370494699
:104B3C00CAE70098FFF7FCFC384615B0BDE8F083D7
:104B4C00024B034A1A6000225A607047C8E60320E1
:104B5C009C530B00F8B506460D468F180024BD4239
:104B6C000CD0336815F8011B9B6830469847031E20
:104B7C0001DB1C44F3E7002C08BF1C462046F8BDA3
:104B8C0013B50446084659B10191FFF741FA236861
:104B9C000199DB680246204602B0BDE81040184778
:104BAC0002B010BD03689B68184730B58BB000236A
:104BBC00012A8DF8243098BF0A2209AC0D46B1FBAE
:104BCC00F2F101FB125303F0FF03092B94BF3033B6
:104BDC003733DBB2AA4204F8013DEFD92146FFF787
:104BEC00CFFF0BB030BD0000014B00229A60704724
:104BFC00D0E6032010B5044608462170FFF7A8FC48
:104C0C0000236360204610BD054B02221A60054B41
:104C1C00054A9A600020C3E90000FFF721BD00BFE0
:104C2C00ECE60320E0E603200000FFFF024B1A68CD
:104C3C00024B1A60704700BFE0E50320F0E603204A
:104C4C0070474174704708B5007CFFF7C1FC20EA3F
:104C5C00E07008BD08B5007CFFF792FC20EAE0701C
:104C6C0008BD08B5007CFFF79BFC40EAE07008BD6E
:104C7C0008B5007CFFF78CFC40EAE07008BD007CB6
:104C8C00FFF796BC37B5457C04462DB1207C03B0AC
:104C9C00BDE83040FFF76CBC007C0191FFF798FC3D
:104CAC0000280199F2DC284603B030BD10B5142160
:104CBC000446FFF7F2F9204610BD000010B54FF482
:104CCC007A730446084611460022C4E90123044BBA
:104CDC002360012320746374FFF782FC204610BD0F
:104CEC00F4530B00417470477047704708B50021AE
:104CFC00007CFFF79DFC40EAE07008BD08B501217F
:104D0C00007CFFF795FC40EAE07008BD08B5007C1C
:104D1C00FFF786FC20EAE07008BD08B5007CFFF7C1
:104D2C0077FC20EAE07008BD13B50446007C0191C5
:104D3C00FFF776FC0028019901DC607C20B1207C17
:104D4C00FFF77EFC20EAE07002B010BD007CFFF79C
:104D5C007FBC10B514210446FFF79FF9204610BD07
:104D6C0010B54FF47A73044608460021C4E90113C8
:104D7C00044B23600123207463741146FFF738FC45
:104D8C00204610BD24540B00007C0022FFF738BCD9
:104D9C0010B514220446002100F012FA204610BD72
:104DAC0010B50F4C88B003A8FFF7F2FF2178BFF3C2
:104DBC005B8F11F001010FD120460191FFF76FF9C4
:104DCC00019948B103AA0748FFF7CAFF2046FFF72D
:104DDC006BF9054800F0E0F9024808B010BD00BFBF
:104DEC00F4E60320F8E60320F54C0B0000224068A3
:104DFC001146FFF781BC002240681146FFF79CBCAE
:104E0C00002240681146FFF7A7BC40680022FFF75C
:104E1C009BBC4068002281F00101FFF785BC002398
:104E2C0040681A461946FFF777BC002340681A46BB
:104E3C001946FFF769BC002240681146FFF74CBCCD
:104E4C00406800220221FFF74FBC002340681A463D
:104E5C00FFF73ABC024B04225A60024A1A607047B0
:104E6C000CE7032054540B00014B1860704700BF33
:104E7C00E4E5032008B50B4B43B1FFF791FF036842
:104E8C001B699847002801DDAFF30080064B43B146
:104E9C0000F05CF903681B699847002801DDAFF34B
:104EAC00008008BD000000000000000008B5FFF7FE
:104EBC00E1FFFFF7D5FA014B186008BD28E7032086
:104ECC000548064A064908B5121A00F06BF9054B5D
:104EDC00054A1A6008BD00BF00F4032004F4032047
:104EEC00B0550B0000F403201E1C279A07B50023B5
:104EFC0000931A466FF07701FFF7D4FB03B05DF80F
:104F0C0004FB000007B543880A2B08D0502B0BD1AB
:104F1C00094B1B684BB103B05DF804EB1847FFF766
:104F2C00E5FF03B05DF804FB002300931A466FF015
:104F3C007701FFF7B7FBF4E718E7032010B5124829
:104F4C000021FFF739FC114B1A68114B9A42114B97
:104F5C000CBF012200221A7001D0FFF7B1FFFFF73E
:104F6C0077FA044600F034F90B4B13B12046AFF33B
:104F7C00008000210848FFF79FFBBDE81040074860
:104F8C000021FFF785BB00BF754E0B0000F403201A
:104F9C001E1C279A14E7032000000000114F0B0081
:104FAC00232813B502D9002002B010BDA0F10B03C9
:104FBC00022B1AD8174C2178BFF35B8F11F001012B
:104FCC000BD120460191FFF76AF8019928B11248DC
:104FDC00FFF710FE2046FFF767F80F4B1878FFF726
:104FEC00BFFA0028DFD10120DEE7012809D800F044
:104FFC006DF80021007CFFF783FA80F00100C0B24D
:10500C00D2E709380128EED800F0A0F8007CFFF7B1
:10501C00D7FAF2E71CE7032020E70320232838B552
:10502C0004460D460AD8FF2908D0FFF7B9FF28B16E
:10503C0029462046BDE83840FFF71ABA38BD38B5C6
:10504C0004460D46FFF71CFAFF2810D0062804D89A
:10505C004D2323FA00F0C30709D42046FFF7A0FF25
:10506C0028B129462046BDE83840FFF711BA38BDB3
:10507C0010B50446FFF704FA031FDBB2012B08D965
:10508C002046FFF78DFF20B12046BDE81040FFF70A
:10509C0007BA002010BD704738B50A4B03600123D6
:1050AC00044643610849202000F074F82025606014
:1050BC000549A560284600F06DF8C4E903052046B3
:1050CC0038BD00BF1800010088540B0030B50E4DE0
:1050DC002978BFF35B8F11F0010487B011D12846FA
:1050EC00FEF7DDFF68B16846FFF7D6FF6A4621463A
:1050FC000648FFF7DFFB2846FEF7D6FF044800F012
:10510C004BF8024807B030BD2CE7032030E70320F2
:10511C00A3500B007047000038B5044614252A46EE
:10512C00002100F04DF825804025074925812846AF
:10513C00258200F02FF804496060284600F02AF818
:10514C00E060204638BD00BF88540B0030B50E4DD2
:10515C002978BFF35B8F11F0010487B011D1284679
:10516C00FEF79DFF68B101A8FFF7D6FF01AA214603
:10517C000648FFF7A3FD2846FEF796FF044800F00B
:10518C000BF8024807B030BD44E7032048E7032082
:10519C0021510B00FEF77FBF002301461A4618462B
:1051AC0000F044B80A44914200F1FF3300D170473B
:1051BC0010B511F8014B03F8014F9142F9D110BD14
:1051CC0002440346934200D1704703F8011BF9E7F0
:1051DC0038B5104B1D68AB6B0446B3B91820FFF7FC
:1051EC00D3FA0246A86320B90B4B0C484221FFF7B7
:1051FC00DBFA0B490B4BC0E900130B4B83600B2301
:10520C00838100210120C2E90401AB6B00221C61E7
:10521C005A6138BDE4E5032089540B00A0540B00FF
:10522C000E33CDAB34126DE6ECDE05002DE9F84300
:10523C00DFF8B8800646D8F800001F460D469146A8
:10524C0000F056F8254B1C6834B9254C1C60254BD6
:10525C0013B11B68C4F8883063681F2B07DDD8F8BE
:10526C00000000F047F84FF0FF30BDE8F8834EB374
:10527C00D4F8880088B91C4B23B9D8F8000000F08A
:10528C0038F8F0E74FF48470FFF77EFA0028F4D07A
:10529C000023C0E94033C4F88800636840F82390C9
:1052AC0001229A4000EB8301D0F800311343C0F87F
:1052BC000031022EC1F8807002BFD0F804311343C4
:1052CC00C0F804316368D8F800005A1C02336260DD
:1052DC0044F8235000F00EF80020C6E7E8E703205E
:1052EC005CE703200000000095470B0048E6032014
:1052FC0070477047704700002D400B0069400B0051
:10530C0091400B0095400B000000000000000000D5
:10531C00000000004B480B0041480B0037480B00C5
:10532C002D480B0021480B0015480B003D4A0B0083
:10533C00454A0B0009480B0001480B00F7470B00CE
:10534C00ED470B00754A0B00000000000000000048
:10535C0069480B00B3480B008B480B006B480B00E3
:10536C0093480B009B480B00A3480B00AB480B0069
:10537C0000000000000000000D490B00FD480B0070
:10538C00FF480B006170700000000000000000007E
:10539C00FD490B00074A0B00114A0B001B4A0B007E
:1053AC00254A0B00314A0B003D4A0B00454A0B00C5
:1053BC004D4A0B00594A0B00614A0B006B4A0B001B
:1053CC00754A0B0025592D256D2D25645425483A19
:1053DC00254D3A2553257A0061736374696D650018
:1053EC0000000000000000004D4C0B00B94C0B00FD
:1053FC00914C0B00614B0B00614C0B007D4C0B0076
:10540C006F4C0B008B4C0B004F4C0B00534C0B0098
:10541C000000000000000000F74C0B005F4D0B007B
:10542C00354D0B00614B0B00274D0B00F94C0B005D
:10543C00094D0B00594D0B00194D0B00F14C0B0095
:10544C000000000000000000574E0B004D4E0B00FA
:10545C00434E0B00F94D0B00374E0B002B4E0B003F
:10546C003D4A0B00454A0B001F4E0B00174E0B001C
:10547C000D4E0B00034E0B00754A0B0000524545B8
:10548C004E54206D616C6C6F63207375636365653E
:10549C00646564002F746D702F6A656E6B696E7332
:1054AC002D4743432D31302D706970656C696E65E5
:1054BC002D34385F32303230313132345F31363066
:1054CC00363138303633392F7372632F6E65776C03
:1054DC0069622F6E65776C69622F6C6962632F73DA
:1054EC0074646C69622F72616E642E63000000003C
:1054FC00C5430B00DD470B0055480B00ED490B0075
:10550C004D4B0B00F54B0B00154C0B00394C0B00A5
:04551C00614E0B00D1
:10552000040000001400000003000000474E550076
:105530002829BD5B65357FF7E6FF78167649C228D6
:0455400051A31B5305
:10554400E4530B00E8E50320000000000000000025
:105554000000000000000000000000000000000047
:105564000000000000000000000000000000000037
:105574000000000000000000000000000000000027
:105584000000000000000000000000000000000017
:105594000000000000000000000000000000000007
:0C55A4000000000000000000ECE7032005
:0455B00000000000F7
:1055BA0000000102030405060708090A0B0C0D0E78
:1055CA000F101112131415161718191A1B1C1D1E69
:0455DA001F20280066
:0455DE0078563412B5
:04000003B000401CED
:00000001FF
